S00D00007461736B312E7372656333
S11300000C942A000C9447000C9447000C9447006D
S11300100C9447000C9447000C9447000C94470040
S11300200C9447000C9447000C9447000C94470030
S11300300C9447000C9447000C9447000C94470020
S11300400C9447000C9447000C9447000C94470010
S11300500C94470011241FBECFE5D8E0DEBFCDBF0E
S113006010E0A0E6B0E0E4EEF6E002C005900D92E8
S1130070AA36B107D9F710E0AAE6B0E001C01D9294
S1130080AA36B107E1F70E94F4020C9470030C94B1
S11300900000DF92EF92FF920F931F93CF93DF93B1
S11300A0C0E6D0E00F2EF3E6EF2EF0E0FF2EF02DA9
S11300B08E010D5F1F4FD99083E06D2D40E00E94AB
S11300C0A800F70181917F01823021F483E06D2D36
S11300D00E942002C017D10771F7DF91CF911F91C1
S11300E00F91FF90EF90DF9008950F931F93CF939C
S11300F0DF9300D0CDB7DEB795E099839A83082FBC
S113010010E0F801E05AFF4F83E060810E94ED01A6
S11301108983F801ED59FF4F8081882339F489815F
S1130120813011F48A830CC01A820AC08150823053
S113013038F48981882319F481E08A8301C01A8202
S11301408A810F900F90DF91CF911F910F910895A5
S1130150813031F1813038F0823009F43EC083308F
S113016009F074C057C0413069F42AB381E090E0CB
S1130170AC0102C0440F551F6A95E2F7BA01622B25
S11301806ABB08952AB381E090E0AC0102C0440F39
S1130190551F6A95E2F7BA01609562236ABB089518
S11301A0413069F427B381E090E0AC0102C0440F10
S11301B0551F6A95E2F7BA01622B67BB089527B30E
S11301C081E090E0AC0102C0440F551F6A95E2F74C
S11301D0BA016095622367BB0895413069F424B382
S11301E081E090E0AC0102C0440F551F6A95E2F72C
S11301F0BA01622B64BB089524B381E090E0AC01A2
S113020002C0440F551F6A95E2F7BA016095622354
S113021064BB0895413069F421B381E090E0AC01FE
S113022002C0440F551F6A95E2F7BA01622B61BB05
S1130230089521B381E090E0AC0102C0440F551F42
S11302406A95E2F7BA016095622361BB0895813033
S113025031F1813038F0823009F43EC0833009F046
S113026074C057C0442371F42BB381E090E0AC0117
S113027002C0440F551F6A95E2F7BA0160956223E4
S11302806BBB08952BB381E090E0AC0102C0440F36
S1130290551F6A95E2F7BA01622B6BBB089544239C
S11302A071F428B381E090E0AC0102C0440F551F03
S11302B06A95E2F7BA016095622368BB089528B392
S11302C081E090E0AC0102C0440F551F6A95E2F74B
S11302D0BA01622B68BB0895442371F425B381E00D
S11302E090E0AC0102C0440F551F6A95E2F7BA01D1
S11302F06095622365BB089525B381E090E0AC016D
S113030002C0440F551F6A95E2F7BA01622B65BB20
S11303100895442371F422B381E090E0AC0102C05B
S1130320440F551F6A95E2F7BA016095622362BBD8
S1130330089522B381E090E0AC0102C0440F551F40
S11303406A95E2F7BA01622B62BB089508956823A7
S113035070E0CB0102C0959587954A95E2F7089520
S11303608130A1F0813028F08230E9F08330A1F5AA
S113037027C02BB381E090E0AC0102C0440F551FAD
S11303806A95E2F7BA0162276BBB089528B381E04E
S113039090E0AC0102C0440F551F6A95E2F7BA0120
S11303A0622768BB089525B381E090E0AC0102C0E8
S11303B0440F551F6A95E2F7BA01622765BB089599
S11303C022B381E090E0AC0102C0440F551F6A954E
S11303D0E2F7BA01622762BB0895813089F0813067
S11303E028F08230B9F0833049F51EC029B330E0DB
S11303F0C90102C0959587956A95E2F781700895C1
S113040026B330E0C90102C0959587956A95E2F755
S11304108170089523B330E0C90102C09595879592
S11304206A95E2F78170089520B330E0C90102C0F3
S1130430959587956A95E2F78170089580E008950F
S11304408130F9F0813030F0823091F1833009F05D
S11304505CC045C08AB390E0062E02C0959587958E
S11304600A94E2F780FD51C02BB381E090E0AC0127
S113047002C0440F551F6A95E2F7BA01622B6BBBA9
S1130480089587B390E0062E02C0959587950A9447
S1130490E2F780FD3AC028B381E090E0AC0102C0ED
S11304A0440F551F6A95E2F7BA01622B68BB0895A1
S11304B084B390E0062E02C0959587950A94E2F7DE
S11304C080FD23C025B381E090E0AC0102C0440F5D
S11304D0551F6A95E2F7BA01622B65BB089581B393
S11304E090E0062E02C0959587950A94E2F780FD68
S11304F00CC022B381E090E0AC0102C0440F551F50
S11305006A95E2F7BA01622B62BB089580E066E067
S113051041E00E94A80080E065E041E00E94A8005C
S113052081E067E041E00E94A80080E064E041E0EF
S11305300E94A8000895882329F466E041E00E94FF
S113054027010895823031F480E064E041E00E94A4
S113055027010895833031F481E067E041E00E948F
S113056027010895813029F480E065E041E00E948C
S113057027010895882329F466E040E00E942701BA
S11305800895823031F480E064E040E00E94270165
S11305900895833031F481E067E040E00E94270150
S11305A00895813029F480E065E040E00E9427014D
S11305B00895882321F466E00E94B00108958230F2
S11305C029F480E064E00E94B0010895833029F4A6
S11305D081E067E00E94B0010895813021F480E059
S11305E065E00E94B0010895CF93DF93CDB7DEB7E5
S11305F029970FB6F894DEBF0FBECDBF19821A82B9
S11306001B82DE011496E6E6F0E083E001900D9291
S11306108150E1F71F82188619860E9449000E94C2
S1130620860283E00E94BA0282E00E94BA021F821C
S11306308F81833068F58F81E4E0F0E0EC0FFD1FDB
S1130640E80FF11D80810E947500888788858130BC
S113065069F48F81E1E0F0E0EC0FFD1FE80FF11D7C
S113066080818F5F808389858F5F89878F81E4E0B4
S1130670F0E0EC0FFD1FE80FF11D80810E94750072
S11306808130A1F38F818F5F8F838F81833098F2C4
S11306908985863061F689818330A1F48A8182302C
S11306A089F48B81813071F483E00E949B028FEF87
S11306B094E3ACE081509040A040E1F700C000001A
S11306C01986B5CF82E00E949B028FEF94E3ACE0E1
S11306D081509040A040E1F700C000001986A7CFE8
S10706E0F894FFCFB8
S10D06E407060502020200010200ED
S9030000FC
