S0150000736576656E5F7365676D656E742E737265639C
S11300000C942A000C9447000C9447000C9447006D
S11300100C9447000C9447000C9447000C94470040
S11300200C9447000C9447000C9447000C94470030
S11300300C9447000C9447000C9447000C94470020
S11300400C9447000C9447000C9447000C94470010
S11300500C94470011241FBECFE5D8E0DEBFCDBF0E
S113006010E0A0E6B0E0E4EDF6E002C005900D92E9
S1130070A236B107D9F710E0A2E6B0E001C01D92A4
S1130080A236B107E1F70E9428030C9468030C948C
S1130090000083E067E040E00E947D0183E066E0C9
S11300A040E00E947D0183E065E040E00E947D0124
S11300B00895813071F0813018F08230E1F412C07B
S11300C083E067E00E94B90291E08823A9F090E000
S11300D013C083E066E00E94B90291E0882361F0D6
S11300E090E00AC083E065E00E94B90291E08823B1
S11300F019F090E001C090E0892F089581E060E05C
S113010041E00E947D0181E061E041E00E947D01C7
S113011081E062E041E00E947D0181E064E041E031
S11301200E947D0180E063E041E00E947D0180E067
S113013062E041E00E947D0181E065E041E00E94CF
S11301407D0181E066E041E00E947D0108950F9306
S11301501F93CF93DF932AE030E0B9010E94540348
S1130160182FCB01B9010E945403D82FCB01B90138
S11301700E945403C82FCB01B9010E945403082FD5
S113018080E063E041E00E94FC01412F417081E086
S113019060E00E94FC01412F4695417081E061E0DE
S11301A00E94FC01412F46954695417081E062E032
S11301B00E94FC01169516951695412F417081E019
S11301C064E00E94FC018FEC97E00197F1F700C016
S11301D0000080E063E040E00E94FC0180E062E017
S11301E041E00E94FC014D2F417081E060E00E94DB
S11301F0FC014D2F4695417081E061E00E94FC01B5
S11302004D2F46954695417081E062E00E94FC01C5
S1130210D695D695D6954D2F417081E064E00E9425
S1130220FC018FEC97E00197F1F700C0000080E03B
S113023062E040E00E94FC0181E065E041E00E9450
S1130240FC014C2F417081E060E00E94FC014C2FC6
S11302504695417081E061E00E94FC014C2F469577
S11302604695417081E062E00E94FC01C695C69506
S1130270C6954C2F417081E064E00E94FC018FEC34
S113028097E00197F1F700C0000081E065E040E0ED
S11302900E94FC0181E066E041E00E94FC01402FE5
S11302A0417081E060E00E94FC01402F469541705E
S11302B081E061E00E94FC01402F46954695417023
S11302C081E062E00E94FC01069506950695402FA8
S11302D0417081E064E00E94FC018FEC97E001979B
S11302E0F1F700C0000081E066E040E00E94FC01FC
S11302F0DF91CF911F910F910895813031F18130B9
S113030038F0823009F43EC0833009F074C057C01D
S1130310413069F42AB381E090E0AC0102C0440F9B
S1130320551F6A95E2F7BA01622B6ABB08952AB396
S113033081E090E0AC0102C0440F551F6A95E2F7DA
S1130340BA01609562236ABB0895413069F427B30A
S113035081E090E0AC0102C0440F551F6A95E2F7BA
S1130360BA01622B67BB089527B381E090E0AC012A
S113037002C0440F551F6A95E2F7BA0160956223E3
S113038067BB0895413069F424B381E090E0AC0187
S113039002C0440F551F6A95E2F7BA01622B64BB91
S11303A0089524B381E090E0AC0102C0440F551FCE
S11303B06A95E2F7BA016095622364BB08954130FF
S11303C069F421B381E090E0AC0102C0440F551FF1
S11303D06A95E2F7BA01622B61BB089521B381E00B
S11303E090E0AC0102C0440F551F6A95E2F7BA01D0
S11303F06095622361BB0895813031F1813038F01A
S1130400823009F43EC0833009F074C057C04423DD
S113041071F42BB381E090E0AC0102C0440F551F8E
S11304206A95E2F7BA01609562236BBB08952BB31A
S113043081E090E0AC0102C0440F551F6A95E2F7D9
S1130440BA01622B6BBB0895442371F428B381E095
S113045090E0AC0102C0440F551F6A95E2F7BA015F
S11304606095622368BB089528B381E090E0AC01F5
S113047002C0440F551F6A95E2F7BA01622B68BBAC
S11304800895442371F425B381E090E0AC0102C0E7
S1130490440F551F6A95E2F7BA016095622365BB64
S11304A0089525B381E090E0AC0102C0440F551FCC
S11304B06A95E2F7BA01622B65BB0895442371F48F
S11304C022B381E090E0AC0102C0440F551F6A954D
S11304D0E2F7BA016095622362BB089522B381E01A
S11304E090E0AC0102C0440F551F6A95E2F7BA01CF
S11304F0622B62BB089508958130A1F0813028F009
S11305008230E9F08330A1F527C02BB381E090E07D
S1130510AC0102C0440F551F6A95E2F7BA01622785
S11305206BBB089528B381E090E0AC0102C0440F96
S1130530551F6A95E2F7BA01622768BB089525B38F
S113054081E090E0AC0102C0440F551F6A95E2F7C8
S1130550BA01622765BB089522B381E090E0AC0143
S113056002C0440F551F6A95E2F7BA01622762BBC5
S11305700895813089F0813028F08230B9F08330D9
S113058049F51EC029B330E0C90102C0959587958D
S11305906A95E2F78170089526B330E0C90102C07C
S11305A0959587956A95E2F78170089523B330E0B5
S11305B0C90102C0959587956A95E2F781700895FF
S11305C020B330E0C90102C0959587956A95E2F79A
S11305D08170089580E00895089580E00E94590094
S11305E0882369F081E0809360008FEF90E7A2E0B8
S11305F081509040A040E1F700C0000010C081E0AD
S11306000E945900882359F0109260008FEF90E700
S1130610A2E081509040A040E1F700C0000080912A
S113062060000895CF93DF93D82FC5E08D2F90E01D
S11306300E94A7008FEF99EFA0E081509040A04066
S1130640E1F700C00000C15089F7DF91CF91089510
S11306500E9449000E947E00D1E0C0E013E600E061
S11306600E94ED02D13021F4CF5FC33639F403C0C8
S1130670C15019F003C0C02F01C0C12F0E94ED0268
S11306808C2F0E9412030E94ED028C2F0E941203F1
S11306900E94ED028C2F0E9412030E94ED02D82FBB
S11306A08C2F0E941203DCCFAA1BBB1B51E107C095
S11306B0AA1FBB1FA617B70710F0A61BB70B881FEE
S11306C0991F5A95A9F780959095BC01CD0108957D
S10706D0F894FFCFC8
S10506D401001F
S9030000FC
