S01500006164635F696E746572727570742E737265639B
S11300000C942A000C945E030C9485030C94AC03AA
S11300100C9447000C9447000C9447000C94470040
S11300200C9447000C9447000C9447000C94470030
S11300300C9447000C9447000C9447000C94470020
S11300400C94E4000C9447000C9447000C94470073
S11300500C94470011241FBECFE5D8E0DEBFCDBF0E
S113006010E0A0E6B0E0E6E2F9E002C005900D92EF
S1130070A036B107D9F710E0A0E6B0E001C01D92A8
S1130080A237B107E1F70E945E000C9491040C942E
S1130090000080E00E94C3009093610080936000A0
S11300A0089582E00E9430048FEF91EEA4E0815025
S11300B09040A040E1F700C00000089589E490E07A
S11300C00E94DD0081E590E00E9425030E94FF026A
S11300D00E9496000E94D30383E062E00E94DD0246
S11300E0809160009091610029E0853C920720F0A6
S11300F081E00E94E803F4CF81E00E940C04F0CF79
S1130100379A0895339A8FB780688FBF08953798C8
S11301100895369A0895359A80B78F7D80BF80B749
S1130120806480BF80B78F7780BF089516B817B8F2
S11301303E9A86B1866086B90E9480000E948B0038
S11301400E948200089597B1907E97B997B18F70FD
S1130150982B97B90E94890086B184FFFDCF349A09
S113016064B175B180E090E028E833E140E050E00C
S11301700E9450042FEF33E040E050E00E946F04EF
S1130180822F932F089597B1907E97B997B18F706E
S1130190982B97B964B175B180E090E028E833E119
S11301A040E050E00E9450042FEF33E040E050E084
S11301B00E946F04822F932F0895009721F090934B
S11301C06B0080936A0008951F920F920FB60F92EE
S11301D011242F933F934F935F936F937F938F9348
S11301E09F93AF93BF93EF93FF93E0916A00F091D5
S11301F06B000995FF91EF91BF91AF919F918F9102
S11302007F916F915F914F913F912F910F900FBE0E
S11302100F901F901895CF93DF93EC0180E00E941C
S1130220A3009983888381E00E94A3009B838A832F
S113023082E00E94A3009D838C8383E00E94A3003C
S11302409F838E8384E00E94A3009987888785E03A
S11302500E94A3009B878A8786E00E94A3009D8753
S11302608C8787E00E94A3009F878E87DF91CF91C0
S1130270089583E067E040E00E946E0183E066E059
S113028040E00E946E0183E065E040E00E946E0160
S11302900895813071F0813018F08230E1F412C099
S11302A083E067E00E94AA0291E08823A9F090E02D
S11302B013C083E066E00E94AA0291E0882361F003
S11302C090E00AC083E065E00E94AA0291E08823DE
S11302D019F090E001C090E0892F0895813031F148
S11302E0813038F0823009F43EC0833009F074C0A4
S11302F057C0413069F42AB381E090E0AC0102C0F8
S1130300440F551F6A95E2F7BA01622B6ABB089540
S11303102AB381E090E0AC0102C0440F551F6A95F6
S1130320E2F7BA01609562236ABB0895413069F42B
S113033027B381E090E0AC0102C0440F551F6A95D9
S1130340E2F7BA01622B67BB089527B381E090E01E
S1130350AC0102C0440F551F6A95E2F7BA016095DB
S1130360622367BB0895413069F424B381E090E0CF
S1130370AC0102C0440F551F6A95E2F7BA01622B23
S113038064BB089524B381E090E0AC0102C0440F43
S1130390551F6A95E2F7BA016095622364BB08951C
S11303A0413069F421B381E090E0AC0102C0440F14
S11303B0551F6A95E2F7BA01622B61BB089521B318
S11303C081E090E0AC0102C0440F551F6A95E2F74A
S11303D0BA016095622361BB0895813031F18130A7
S11303E038F0823009F43EC0833009F074C057C03D
S11303F0442371F42BB381E090E0AC0102C0440FBC
S1130400551F6A95E2F7BA01609562236BBB0895A4
S11304102BB381E090E0AC0102C0440F551F6A95F4
S1130420E2F7BA01622B6BBB0895442371F428B33D
S113043081E090E0AC0102C0440F551F6A95E2F7D9
S1130440BA016095622368BB089528B381E090E007
S1130450AC0102C0440F551F6A95E2F7BA01622B42
S113046068BB0895442371F425B381E090E0AC01A6
S113047002C0440F551F6A95E2F7BA0160956223E2
S113048065BB089525B381E090E0AC0102C0440F40
S1130490551F6A95E2F7BA01622B65BB08954423A0
S11304A071F422B381E090E0AC0102C0440F551F07
S11304B06A95E2F7BA016095622362BB089522B39C
S11304C081E090E0AC0102C0440F551F6A95E2F749
S11304D0BA01622B62BB089508958130A1F0813086
S11304E028F08230E9F08330A1F527C02BB381E0F6
S11304F090E0AC0102C0440F551F6A95E2F7BA01BF
S113050062276BBB089528B381E090E0AC0102C080
S1130510440F551F6A95E2F7BA01622768BB089534
S113052025B381E090E0AC0102C0440F551F6A95E9
S1130530E2F7BA01622765BB089522B381E090E037
S1130540AC0102C0440F551F6A95E2F7BA01622755
S113055062BB0895813089F0813028F08230B9F08F
S1130560833049F51EC029B330E0C90102C0959516
S113057087956A95E2F78170089526B330E0C90142
S113058002C0959587956A95E2F78170089523B323
S113059030E0C90102C0959587956A95E2F78170AC
S11305A0089520B330E0C90102C0959587956A95F6
S11305B0E2F78170089580E00895089585B78D7FEE
S11305C085BF85B7846085BF8BB78F778BBF8AB7AC
S11305D080688ABF8FB780688FBF089584B78F7B88
S11305E084BF8BB78F7D8BBF8AB780628ABF8FB77A
S11305F080688FBF08958BB780648BBF089585B7DB
S11306008E7F85BF85B7826085BF8BB78F7B8BBF9D
S11306108AB780648ABF0E94FB028FB780688FBF4D
S113062008958BB780688BBF08958BB780628BBFAA
S113063008958BB78F7B8BBF08958BB78F778BBF54
S113064008958BB78F7D8BBF0895009721F0909309
S11306507100809370000895009721F090936F00CB
S113066080936E000895009721F090936D0080931D
S11306706C000895813039F485B7816085BF85B7F2
S11306808D7F85BF0895873039F485B7816085BF34
S113069085B7826085BF0895843039F485B78E7F2D
S11306A085BF85B7826085BF08958A3031F485B7E8
S11306B08E7F85BF85B78D7F85BF08951F920F926A
S11306C00FB60F9211242F933F934F935F936F9321
S11306D07F938F939F93AF93BF93EF93FF93E09197
S11306E07000F09171000995FF91EF91BF91AF9166
S11306F09F918F917F916F915F914F913F912F9136
S11307000F900FBE0F901F9018951F920F920FB667
S11307100F9211242F933F934F935F936F937F9383
S11307208F939F93AF93BF93EF93FF93E0916E00EA
S1130730F0916F000995FF91EF91BF91AF919F9157
S11307408F917F916F915F914F913F912F910F9076
S11307500FBE0F901F9018951F920F920FB60F9215
S113076011242F933F934F935F936F937F938F93B2
S11307709F93AF93BF93EF93FF93E0916C00F0913D
S11307806D000995FF91EF91BF91AF919F918F916A
S11307907F916F915F914F913F912F910F900FBE79
S11307A00F901F90189581E067E041E00E946E0170
S11307B080E064E041E00E946E0180E065E041E099
S11307C00E946E0180E066E041E00E946E0108959F
S11307D0823081F0833018F48130E9F405C083302D
S11307E079F08430C1F412C081E067E041E00E94F6
S11307F0ED01089580E064E041E00E94ED01089578
S113080080E065E041E00E94ED01089580E066E04B
S113081041E00E94ED010895823081F0833018F4A4
S11308208130E9F405C0833079F08430C1F412C01A
S113083081E067E040E00E94ED01089580E064E01B
S113084040E00E94ED01089580E065E040E00E94F0
S1130850ED01089580E066E040E00E94ED01089516
S1130860823079F0833018F48130C9F405C08330C4
S113087069F08430A1F40FC081E067E00E946D024A
S1130880089580E064E00E946D02089580E065E0D0
S11308900E946D02089580E066E00E946D02089552
S11308A0629FD001739FF001829FE00DF11D649F50
S11308B0E00DF11D929FF00D839FF00D749FF00DDC
S11308C0659FF00D9927729FB00DE11DF91F639F7D
S11308D0B00DE11DF91FBD01CF0111240895A1E25E
S11308E01A2EAA1BBB1BFD010DC0AA1FBB1FEE1FA6
S11308F0FF1FA217B307E407F50720F0A21BB30BF1
S1130900E40BF50B661F771F881F991F1A9469F76C
S113091060957095809590959B01AC01BD01CF01C8
S10909200895F894FFCFD6
S9030000FC
