:100000000C942A000C9447000C9447000C94470071
:100010000C9447000C9447000C9447000C94470044
:100020000C9447000C9447000C9447000C94470034
:100030000C9447000C9447000C9447000C94470024
:100040000C94F7000C9447000C9447000C94470064
:100050000C94470011241FBECFE5D8E0DEBFCDBF12
:1000600010E0A0E6B0E0E0EDF9E002C005900D92EE
:10007000A43AB107D9F710E0A4EAB0E001C01D929C
:10008000A83AB107E1F70E9449000C94E6040C94E9
:100090000000CF93DF93CDB7DEB765970FB6F89426
:1000A000DEBF0FBECDBF0E9429040E94990000E66A
:1000B00010E0CE0101960E941E0189819A81BE0145
:1000C0006F5E7F4F4AE050E00E94A104CE0141964E
:1000D0000E94ED03C8010E94ED038B819C81BE014B
:1000E0006F5E7F4F4AE050E00E94A104CE0141962E
:1000F0000E94ED03C8010E94ED0389859A85BE0127
:100100006F5E7F4F4AE050E00E94A104CE0141960D
:100110000E94ED03C8010E94ED038FEF94E3ACE071
:1001200081509040A040E1F700C00000C2CF379A54
:10013000089516B817B83E9A86B1866086B90E94AF
:1001400097000895339A8FB780688FBF08953798C6
:100150000895369A0895359A80B78F7D80BF80B70D
:10016000806480BF80B78F7780BF089597B1907EFD
:1001700097B997B18F70982B97B90E94A90086B153
:1001800084FFFDCF349A64B175B180E090E028E837
:1001900033E140E050E00E9460042FEF33E040E0A4
:1001A00050E00E947F04822F932F089597B1907E94
:1001B00097B997B18F70982B97B964B175B180E0FA
:1001C00090E028E833E140E050E00E9460042FEF27
:1001D00033E040E050E00E947F04822F932F089587
:1001E000009721F09093A7008093A60008951F9296
:1001F0000F920FB60F9211242F933F934F935F935B
:100200006F937F938F939F93AF93BF93EF93FF93DE
:10021000E091A600F091A7000995FF91EF91BF91A1
:10022000AF919F918F917F916F915F914F913F918E
:100230002F910F900FBE0F901F901895CF93DF93C3
:10024000EC0180E00E94B6009983888381E00E94DF
:10025000B6009B838A8382E00E94B6009D838C83D4
:1002600083E00E94B6009F838E8384E00E94B600E4
:100270009987888785E00E94B6009B878A8786E0F9
:100280000E94B6009D878C8787E00E94B6009F87FA
:100290008E87DF91CF910895813031F1813038F030
:1002A000823009F43EC0833009F074C057C0413039
:1002B00069F42AB381E090E0AC0102C0440F551FFD
:1002C0006A95E2F7BA01622B6ABB08952AB381E00E
:1002D00090E0AC0102C0440F551F6A95E2F7BA01E5
:1002E000609562236ABB0895413069F427B381E0C9
:1002F00090E0AC0102C0440F551F6A95E2F7BA01C5
:10030000622B67BB089527B381E090E0AC0102C087
:10031000440F551F6A95E2F7BA016095622367BBE7
:100320000895413069F424B381E090E0AC0102C04B
:10033000440F551F6A95E2F7BA01622B64BB08951A
:1003400024B381E090E0AC0102C0440F551F6A95D0
:10035000E2F7BA016095622364BB0895413069F405
:1003600021B381E090E0AC0102C0440F551F6A95B3
:10037000E2F7BA01622B61BB089521B381E090E0FE
:10038000AC0102C0440F551F6A95E2F7BA016095AF
:10039000622361BB0895813031F1813038F08230C1
:1003A00009F43EC0833009F074C057C0442371F48F
:1003B0002BB381E090E0AC0102C0440F551F6A9559
:1003C000E2F7BA01609562236BBB08952BB381E01D
:1003D00090E0AC0102C0440F551F6A95E2F7BA01E4
:1003E000622B6BBB0895442371F428B381E090E045
:1003F000AC0102C0440F551F6A95E2F7BA0160953F
:10040000622368BB089528B381E090E0AC0102C08C
:10041000440F551F6A95E2F7BA01622B68BB089535
:10042000442371F425B381E090E0AC0102C0440F95
:10043000551F6A95E2F7BA016095622365BB08957E
:1004400025B381E090E0AC0102C0440F551F6A95CE
:10045000E2F7BA01622B65BB0895442371F422B31D
:1004600081E090E0AC0102C0440F551F6A95E2F7AD
:10047000BA016095622362BB089522B381E090E0E7
:10048000AC0102C0440F551F6A95E2F7BA01622B16
:1004900062BB08950895682370E0CB0102C0959572
:1004A00087954A95E2F708958130A1F0813028F0D0
:1004B0008230E9F08330A1F527C02BB381E090E0D2
:1004C000AC0102C0440F551F6A95E2F7BA016227DA
:1004D0006BBB089528B381E090E0AC0102C0440FEB
:1004E000551F6A95E2F7BA01622768BB089525B3E4
:1004F00081E090E0AC0102C0440F551F6A95E2F71D
:10050000BA01622765BB089522B381E090E0AC0197
:1005100002C0440F551F6A95E2F7BA01622762BB19
:100520000895813089F0813028F08230B9F083302D
:1005300049F51EC029B330E0C90102C095958795E1
:100540006A95E2F78170089526B330E0C90102C0D0
:10055000959587956A95E2F78170089523B330E009
:10056000C90102C0959587956A95E2F78170089553
:1005700020B330E0C90102C0959587956A95E2F7EE
:100580008170089580E008958130F9F0813030F075
:10059000823091F1833009F05CC045C08AB390E0AD
:1005A000062E02C0959587950A94E2F780FD51C00A
:1005B0002BB381E090E0AC0102C0440F551F6A9557
:1005C000E2F7BA01622B6BBB089587B390E0062E69
:1005D00002C0959587950A94E2F780FD3AC028B34A
:1005E00081E090E0AC0102C0440F551F6A95E2F72C
:1005F000BA01622B68BB089584B390E0062E02C056
:10060000959587950A94E2F780FD23C025B381E094
:1006100090E0AC0102C0440F551F6A95E2F7BA01A1
:10062000622B65BB089581B390E0062E02C09595BC
:1006300087950A94E2F780FD0CC022B381E090E038
:10064000AC0102C0440F551F6A95E2F7BA01622B54
:1006500062BB089580E062E041E00E94CB0182E04D
:100660008A95F1F700C080E062E040E00E94CB0193
:100670008FE99FE00197F1F700C000000895CF9344
:10068000C82F80E063E040E00E94CB014C2F4295F0
:100690004F70417081E060E00E94CB014C2F429589
:1006A00046954770417081E061E00E94CB014C2F7C
:1006B0004295469546954370417081E062E00E9404
:1006C000CB014C2F441F4427441F81E064E00E946B
:1006D000CB010E942A034C2F417081E060E00E9410
:1006E000CB014C2F4695417081E061E00E94CB0127
:1006F0004C2F46954695417081E062E00E94CB0107
:10070000C695C695C6954C2F417081E064E00E9465
:10071000CB010E942A03CF910895CF93C82F80E088
:1007200063E041E00E94CB014C2F42954F70417035
:1007300081E060E00E94CB014C2F429546954770C6
:10074000417081E061E00E94CB014C2F42954695BB
:1007500046954370417081E062E00E94CB014C2FCE
:10076000441F4427441F81E064E00E94CB010E94A3
:100770002A034C2F417081E060E00E94CB014C2F96
:100780004695417081E061E00E94CB014C2F469577
:100790004695417081E062E00E94CB01C695C69506
:1007A000C6954C2F417081E064E00E94CB010E940D
:1007B0002A03CF910895882319F0813051F405C0A0
:1007C000862F80580E943F030895862F80540E94F0
:1007D0003F0308950E948D030895CF93DF93EC01AA
:1007E0008881882331F021960E94EA038991882329
:1007F000D9F7DF91CF910895DF92EF92FF920F9397
:100800001F93CF93DF9300E4EE24FF24DD2468944C
:10081000D3F8802F0E943F03E701CC0FDD1FCC0FE0
:10082000DD1FCC0FDD1FCD59DF4F1D2D89910E949B
:10083000EA031150D9F70894E11CF11C085F003855
:1008400041F7DF91CF911F910F91FF90EF90DF90D3
:10085000089580E063E041E00E944C0180E062E0A6
:1008600041E00E944C0181E060E041E00E944C01C7
:1008700081E061E041E00E944C0181E062E041E002
:100880000E944C0181E064E041E00E944C0188E25A
:100890008A95F1F781E00E943F0382E00E943F03C6
:1008A00083E00E943F0388E20E943F038CE00E94A5
:1008B0003F030E94FC0380E060E00E94DB03089598
:1008C000629FD001739FF001829FE00DF11D649F34
:1008D000E00DF11D929FF00D839FF00D749FF00DC0
:1008E000659FF00D9927729FB00DE11DF91F639F61
:1008F000B00DE11DF91FBD01CF0111240895A1E242
:100900001A2EAA1BBB1BFD010DC0AA1FBB1FEE1F89
:10091000FF1FA217B307E407F50720F0A21BB30BD4
:10092000E40BF50B661F771F881F991F1A9469F750
:1009300060957095809590959B01AC01BD01CF01AC
:100940000895FB019F01E8944230C4F04532B4F4AD
:100950004A3029F497FB1EF4909581959F4F642FA0
:1009600077270E94D204805D8A330CF0895D8193E1
:10097000CB010097A1F716F45DE251931082C901F3
:100980000C94C204DC01FC01672F71917723E1F71D
:10099000329704C07C916D9370836291AE17BF074C
:1009A000C8F30895AA1BBB1B51E107C0AA1FBB1FB8
:1009B000A617B70710F0A61BB70B881F991F5A95EB
:1009C000A9F780959095BC01CD010895F894FFCFCB
:1009D0002020000A1F1F1F1F0E0400041F111111E9
:1009E00011111F041F111111111F1F041F111111CB
:1009F0001F1F1F041F11111F1F1F1F041F111F1F67
:100A00001F1F1F041F1F1F1F1F1F1F0000010105A5
:040A100005151500B3
:00000001FF
