S01300006B65797061645F6D61696E2E737265638F
S11300000C942A000C9447000C9447000C9447006D
S11300100C9447000C9447000C9447000C94470040
S11300200C9447000C9447000C9447000C94470030
S11300300C9447000C9447000C9447000C94470020
S11300400C9447000C9447000C9447000C94470010
S11300500C94470011241FBECFE5D8E0DEBFCDBF0E
S113006010E0A0E6B0E0E8EFF6E002C005900D92E3
S1130070A837B107D9F710E0A8E7B0E001C01D9296
S1130080A837B107E1F70E94DD020C947A030C94BF
S11300900000EF92FF920F931F93CF93DF93C4E678
S11300A0D0E0EE24FF246894E2F8EC0EFD1E8E01ED
S11300B082E0699141E00E94FF0082E0F8016081E2
S11300C041E00E947E01CE15DF0589F7C0E6D0E04D
S11300D0EE24FF246894E2F8EC0EFD1E8E0183E00A
S11300E0699140E00E94FF0083E0F80160810E9472
S11300F07702CE15DF0591F7DF91CF911F910F9114
S1130100FF90EF9008952F923F924F925F927F92CB
S11301108F929F92AF92BF92CF92DF92EF92FF9213
S11301200F931F93CF93DF930F2EF4E6AF2EF0E0DF
S1130130BF2EF02DCC24DD2477240F2EF0E62F2EB5
S1130140F0E03F2EF02D88249924689482F8820CE4
S1130150931C250182E0F501608140E00E947E014C
S11301608101C601880F991F880F991F0F2EF8E689
S1130170EF2EF0E0FF2EF02DE80EF91EE80183E0EB
S113018068810E944402882371F4F701708083E03F
S113019068810E9444028823D1F38FE39CE901978C
S11301A0F1F700C000000F5F1F4F0894E11CF11C21
S11301B00815190519F70894A11CB11C82E0F20175
S11301C0608141E00E947E010894C11CD11CF4E0CE
S11301D0CF16D10409F0BDCF872DDF91CF911F91A8
S11301E00F91FF90EF90DF90CF90BF90AF909F90D2
S11301F08F907F905F904F903F902F900895813023
S113020031F1813038F0823009F43EC0833009F096
S113021074C057C0413069F42AB381E090E0AC0166
S113022002C0440F551F6A95E2F7BA01622B6ABBFC
S113023008952AB381E090E0AC0102C0440F551F39
S11302406A95E2F7BA01609562236ABB089541306A
S113025069F427B381E090E0AC0102C0440F551F5C
S11302606A95E2F7BA01622B67BB089527B381E070
S113027090E0AC0102C0440F551F6A95E2F7BA0141
S11302806095622367BB0895413069F424B381E02B
S113029090E0AC0102C0440F551F6A95E2F7BA0121
S11302A0622B64BB089524B381E090E0AC0102C0EA
S11302B0440F551F6A95E2F7BA016095622364BB47
S11302C00895413069F421B381E090E0AC0102C0AB
S11302D0440F551F6A95E2F7BA01622B61BB08957A
S11302E021B381E090E0AC0102C0440F551F6A9530
S11302F0E2F7BA016095622361BB0895813031F160
S1130300813038F0823009F43EC0833009F074C083
S113031057C0442371F42BB381E090E0AC0102C0D8
S1130320440F551F6A95E2F7BA01609562236BBBCF
S113033008952BB381E090E0AC0102C0440F551F37
S11303406A95E2F7BA01622B6BBB0895442371F4FA
S113035028B381E090E0AC0102C0440F551F6A95B8
S1130360E2F7BA016095622368BB089528B381E07F
S113037090E0AC0102C0440F551F6A95E2F7BA0140
S1130380622B68BB0895442371F425B381E090E0A7
S1130390AC0102C0440F551F6A95E2F7BA0160959B
S11303A0622365BB089525B381E090E0AC0102C0EF
S11303B0440F551F6A95E2F7BA01622B65BB089595
S11303C0442371F422B381E090E0AC0102C0440FF5
S11303D0551F6A95E2F7BA016095622362BB0895DE
S11303E022B381E090E0AC0102C0440F551F6A952E
S11303F0E2F7BA01622B62BB08950895682370E0A6
S1130400CB0102C0959587954A95E2F7089581300E
S1130410A1F0813028F08230E9F08330A1F527C0C3
S11304202BB381E090E0AC0102C0440F551F6A95E4
S1130430E2F7BA0162276BBB089528B381E090E02C
S1130440AC0102C0440F551F6A95E2F7BA01622756
S113045068BB089525B381E090E0AC0102C0440F6D
S1130460551F6A95E2F7BA01622765BB089522B366
S113047081E090E0AC0102C0440F551F6A95E2F799
S1130480BA01622762BB0895813089F0813028F077
S11304908230B9F0833049F51EC029B330E0C90178
S11304A002C0959587956A95E2F78170089526B301
S11304B030E0C90102C0959587956A95E2F781708D
S11304C0089523B330E0C90102C0959587956A95D4
S11304D0E2F78170089520B330E0C90102C0959518
S11304E087956A95E2F78170089580E008958130D8
S11304F0F9F0813030F0823091F1833009F05CC042
S113050045C08AB390E0062E02C0959587950A945B
S1130510E2F780FD51C02BB381E090E0AC0102C052
S1130520440F551F6A95E2F7BA01622B6BBB08951D
S113053087B390E0062E02C0959587950A94E2F75A
S113054080FD3AC028B381E090E0AC0102C0440FC2
S1130550551F6A95E2F7BA01622B68BB089584B30C
S113056090E0062E02C0959587950A94E2F780FDE7
S113057023C025B381E090E0AC0102C0440F551FB5
S11305806A95E2F7BA01622B65BB089581B390E0E6
S1130590062E02C0959587950A94E2F780FD0CC05B
S11305A022B381E090E0AC0102C0440F551F6A956C
S11305B0E2F7BA01622B62BB08950E9449000E94CF
S11305C0060380E061E041E00E94FF000E94830096
S11305D0823069F480E00E941B038FEF93ECA9E062
S11305E081509040A040E1F700C00000EFCF80E0D0
S11305F061E040E00E947E018FEF93ECA9E081501E
S11306009040A040E1F700C00000E0CF81E067E047
S113061041E00E94FF0080E064E041E00E94FF00AE
S113062080E065E041E00E94FF0080E066E041E098
S11306300E94FF000895813069F0813028F08230F3
S113064079F08330C1F412C081E067E041E00E9498
S11306507E01089580E064E041E00E947E010895F7
S113066080E065E041E00E947E01089580E066E05C
S113067041E00E947E010895813069F0813028F0C4
S1130680823079F08330C1F412C081E067E040E049
S11306900E947E01089580E064E040E00E947E01B3
S11306A0089580E065E040E00E947E01089580E0C6
S11306B066E040E00E947E010895813061F081305F
S11306C028F0823069F08330A1F40FC081E067E044
S11306D00E940702089580E064E00E9407020895E2
S11306E080E065E00E940702089580E066E00E94D1
S10B06F007020895F894FFCFFE
S11306F80706050305040302010203410405064233
S10B0708070809432A002344F9
S9030000FC
