S0160000706C61795F7769746874696D65722E737265631C
S11300000C942A000C9447000C9447000C9447006D
S11300100C9447000C9447000C947A030C94A303AB
S11300200C94CC030C94F5030C94E1020C94B802E8
S11300300C9447000C9447000C9447000C94470020
S11300400C9447000C9447000C9447000C94470010
S11300500C94470011241FBECFE5D8E0DEBFCDBF0E
S113006010E0A0E6B0E0E4E8FAE002C005900D92EA
S1130070A236B107D9F710E0A2E6B0E001C01D92A4
S1130080A237B107E1F70E9449020C9440050C9491
S11300900000813031F1813038F0823009F43EC003
S11300A0833009F074C057C0413069F42AB381E049
S11300B090E0AC0102C0440F551F6A95E2F7BA0103
S11300C0622B6ABB08952AB381E090E0AC0102C0C0
S11300D0440F551F6A95E2F7BA01609562236ABB23
S11300E00895413069F427B381E090E0AC0102C087
S11300F0440F551F6A95E2F7BA01622B67BB089556
S113010027B381E090E0AC0102C0440F551F6A950B
S1130110E2F7BA016095622367BB0895413069F440
S113012024B381E090E0AC0102C0440F551F6A95EE
S1130130E2F7BA01622B64BB089524B381E090E036
S1130140AC0102C0440F551F6A95E2F7BA016095ED
S1130150622364BB0895413069F421B381E090E0E7
S1130160AC0102C0440F551F6A95E2F7BA01622B35
S113017061BB089521B381E090E0AC0102C0440F5B
S1130180551F6A95E2F7BA016095622361BB089531
S1130190813031F1813038F0823009F43EC083304F
S11301A009F074C057C0442371F42BB381E090E08C
S11301B0AC0102C0440F551F6A95E2F7BA0160957D
S11301C062236BBB08952BB381E090E0AC0102C0C5
S11301D0440F551F6A95E2F7BA01622B6BBB089571
S11301E0442371F428B381E090E0AC0102C0440FD1
S11301F0551F6A95E2F7BA016095622368BB0895BA
S113020028B381E090E0AC0102C0440F551F6A9509
S1130210E2F7BA01622B68BB0895442371F425B355
S113022081E090E0AC0102C0440F551F6A95E2F7EB
S1130230BA016095622365BB089525B381E090E01F
S1130240AC0102C0440F551F6A95E2F7BA01622B54
S113025065BB0895442371F422B381E090E0AC01BE
S113026002C0440F551F6A95E2F7BA0160956223F4
S113027062BB089522B381E090E0AC0102C0440F58
S1130280551F6A95E2F7BA01622B62BB089508957F
S11302908130A1F0813028F08230E9F08330A1F57B
S11302A027C02BB381E090E0AC0102C0440F551F7E
S11302B06A95E2F7BA0162276BBB089528B381E01F
S11302C090E0AC0102C0440F551F6A95E2F7BA01F1
S11302D0622768BB089525B381E090E0AC0102C0B9
S11302E0440F551F6A95E2F7BA01622765BB08956A
S11302F022B381E090E0AC0102C0440F551F6A951F
S1130300E2F7BA01622762BB0895813089F0813037
S113031028F08230B9F0833049F51EC029B330E0AB
S1130320C90102C0959587956A95E2F78170089591
S113033026B330E0C90102C0959587956A95E2F726
S11303408170089523B330E0C90102C09595879563
S11303506A95E2F78170089520B330E0C90102C0C4
S1130360959587956A95E2F78170089580E00895E0
S113037008958FB780688FBF08958FB78F778FBF29
S1130380089581E067E041E00E94490080E064E074
S113039041E00E94490080E065E041E00E9449009C
S11303A080E066E041E00E9449000895813069F0F0
S11303B0813028F0823079F08330C1F412C081E0BA
S11303C067E041E00E94C800089580E064E041E0F5
S11303D00E94C800089580E065E041E00E94C800E2
S11303E0089580E066E041E00E94C80008958130ED
S11303F069F0813028F0823079F08330C1F412C082
S113040081E067E040E00E94C800089580E064E075
S113041040E00E94C800089580E065E040E00E944A
S1130420C800089580E066E040E00E94C800089596
S1130430813061F0813028F0823069F08330A1F49A
S11304400FC081E067E00E944801089580E064E005
S11304500E944801089580E065E00E9448010895E3
S113046080E066E00E9448010895809164009091C4
S11304706500019690936500809364008B3091052C
S113048038F080E00E941802109265001092640017
S113049008950E94C10181E063E041E00E944900A7
S11304A085E392E00E945E030E940A030E943E03D9
S11304B00E94B901FFCF8091620090916300019680
S11304C090936300809362008536910538F081E053
S11304D00E94180210926300109262000895BC01F9
S11304E080E090E00E94B2042DEB37E346E05DE348
S11304F00E941E040E948604DC01CB0190936100DB
S113050080936000089513BE83B7856083BF89B765
S11305108C7F89BF89B7816089BF88B7816088BFB4
S113052088B7826088BF12BE1CBE089582BF08953A
S11305308CBF089589B7816089BF089589B78E7F7C
S113054089BF089589B7826089BF089589B78D7F6F
S113055089BF0895009721F0909369008093680003
S11305600895009721F090936700809366000895A2
S11305701F920F920FB60F9211242F933F934F9314
S11305805F936F937F938F939F93AF93BF93EF93F7
S1130590FF93E0916800F0916900309709F00995A4
S11305A0FF91EF91BF91AF919F918F917F916F9147
S11305B05F914F913F912F910F900FBE0F901F901D
S11305C018951F920F920FB60F9211242F933F93F9
S11305D04F935F936F937F938F939F93AF93BF9347
S11305E0EF93FF93E0916600F0916700309709F074
S11305F00995FF91EF91BF91AF919F918F917F9159
S11306006F915F914F913F912F910F900FBE0F907B
S11306101F9018958EB5887F8EBD8EB583608EBD74
S11306208FB58F7E8FBD8FB580628FBD89B78B7F6D
S113063089BF89B7877F89BF89B78F7E89BF89B70B
S11306408F7D89BF88B7846088BF88B7886088BF7A
S113065088B7806188BF88B7806288BF1DBC1CBC16
S11306601BBC1ABC19BC18BC08959DBD8CBD089553
S11306709BBD8ABD089599BD88BD089589B78460DE
S113068089BF089589B78B7F89BF089589B7806131
S113069089BF089589B7806289BF089589B7886042
S11306A089BF089589B78F7E89BF089589B7877FE9
S11306B089BF089589B78F7D89BF0895009721F078
S11306C090936D0080936C000895009721F09093AF
S11306D06F0080936E000895009721F0909371004D
S11306E0809370000895009721F090936B0080939D
S11306F06A0008951F920F920FB60F9211242F9340
S11307003F934F935F936F937F938F939F93AF9395
S1130710BF93EF93FF93E0916A00F0916B003097E1
S113072009F00995FF91EF91BF91AF919F918F913E
S11307307F916F915F914F913F912F910F900FBED9
S11307400F901F9018951F920F920FB60F921124BD
S11307502F933F934F935F936F937F938F939F93C5
S1130760AF93BF93EF93FF93E0916E00F0916F000E
S1130770309709F00995FF91EF91BF91AF919F9147
S11307808F917F916F915F914F913F912F910F9036
S11307900FBE0F901F9018951F920F920FB60F92D5
S11307A011242F933F934F935F936F937F938F9372
S11307B09F93AF93BF93EF93FF93E0917000F091F9
S11307C07100309709F00995FF91EF91BF91AF91B6
S11307D09F918F917F916F915F914F913F912F9155
S11307E00F900FBE0F901F9018951F920F920FB687
S11307F00F9211242F933F934F935F936F937F93A3
S11308008F939F93AF93BF93EF93FF93E0916C000B
S1130810F0916D00309709F00995FF91EF91BF9128
S1130820AF919F918F917F916F915F914F913F9184
S11308302F910F900FBE0F901F9018950CD0E6C00B
S1130840DED040F0D5D030F021F45F3F19F0C7C0BE
S1130850511110C1CAC0EBD098F39923C9F35523A1
S1130860B1F3951B550BBB27AA276217730784079F
S113087038F09F5F5F4F220F331F441FAA1FA9F355
S113088033D00E2E3AF0E0E830D091505040E69547
S1130890001CCAF729D0FE2F27D0660F771F881FA8
S11308A0BB1F261737074807AB07B0E809F0BB0B97
S11308B0802DBF01FF2793585F4F2AF09E3F5105BB
S11308C068F08DC0D7C05F3FECF3983EDCF38695AB
S11308D077956795B795F7959F5FC9F7880F911D31
S11308E09695879597F90895E1E0660F771F881F1D
S11308F0BB1F621773078407BA0720F0621B730BD0
S1130900840BBA0BEE1F88F7E095089598D088F011
S11309109F5790F0B92F9927B751A0F0D1F0660FE7
S1130920771F881F991F1AF0BA95C9F712C0B13002
S113093081F09FD0B1E008959CC0672F782F88275D
S1130940B85F39F0B93FCCF3869577956795B39541
S1130950D9F73EF490958095709561957F4F8F4FB0
S11309609F4F0895E89409C097FB3EF490958095B5
S1130970709561957F4F8F4F9F4F9923A9F0F92F61
S113098096E9BB279395F695879577956795B795DF
S1130990F111F8CFFAF4BB0F11F460FF1BC06F5FC5
S11309A07F4F8F4F9F4F16C0882311F096E911C0D7
S11309B0772321F09EE8872F762F05C0662371F0F8
S11309C096E8862F70E060E02AF09A95660F771F0C
S11309D0881FDAF7880F9695879597F9089597F900
S11309E09F6780E870E060E008959FEF80EC0895D1
S11309F000240A94161617061806090608950024FA
S1130A000A9412161306140605060895092E039473
S1130A10000C11F4882352F0BB0F40F4BF2B11F4E7
S1130A2060FF04C06F5F7F4F8F4F9F4F089557FD46
S1130A309058440F551F59F05F3F71F04795880F48
S1130A4097FB991F61F09F3F79F0879508951216DF
S1130A5013061406551FF2CF4695F1DF08C016168B
S1130A6017061806991FF1CF86957105610508943C
S1130A700895E894BB2766277727CB0197F9089553
S1070A80F894FFCF14
S1050A84640008
S9030000FC
