S01A000065787465726E616C29696E746572727562742E737265639F
S11300000C942A000C94D1020C94F8020C941F0353
S11300100C9447000C9447000C9447000C94470040
S11300200C9447000C9447000C9447000C94470030
S11300300C9447000C9447000C9447000C94470020
S11300400C9447000C9447000C9447000C94470010
S11300500C94470011241FBECFE5D8E0DEBFCDBF0E
S113006010E0A0E6B0E0EAE8F7E002C005900D92E7
S1130070A036B107D9F710E0A0E6B0E001C01D92A8
S1130080AC36B107E1F70E9438020C94C3030C9418
S11300900000813031F1813038F0823009F43EC003
S11300A0833009F074C057C0413069F42AB381E049
S11300B090E0AC0102C0440F551F6A95E2F7BA0103
S11300C0622B6ABB08952AB381E090E0AC0102C0C0
S11300D0440F551F6A95E2F7BA01609562236ABB23
S11300E00895413069F427B381E090E0AC0102C087
S11300F0440F551F6A95E2F7BA01622B67BB089556
S113010027B381E090E0AC0102C0440F551F6A950B
S1130110E2F7BA016095622367BB0895413069F440
S113012024B381E090E0AC0102C0440F551F6A95EE
S1130130E2F7BA01622B64BB089524B381E090E036
S1130140AC0102C0440F551F6A95E2F7BA016095ED
S1130150622364BB0895413069F421B381E090E0E7
S1130160AC0102C0440F551F6A95E2F7BA01622B35
S113017061BB089521B381E090E0AC0102C0440F5B
S1130180551F6A95E2F7BA016095622361BB089531
S1130190813031F1813038F0823009F43EC083304F
S11301A009F074C057C0442371F42BB381E090E08C
S11301B0AC0102C0440F551F6A95E2F7BA0160957D
S11301C062236BBB08952BB381E090E0AC0102C0C5
S11301D0440F551F6A95E2F7BA01622B6BBB089571
S11301E0442371F428B381E090E0AC0102C0440FD1
S11301F0551F6A95E2F7BA016095622368BB0895BA
S113020028B381E090E0AC0102C0440F551F6A9509
S1130210E2F7BA01622B68BB0895442371F425B355
S113022081E090E0AC0102C0440F551F6A95E2F7EB
S1130230BA016095622365BB089525B381E090E01F
S1130240AC0102C0440F551F6A95E2F7BA01622B54
S113025065BB0895442371F422B381E090E0AC01BE
S113026002C0440F551F6A95E2F7BA0160956223F4
S113027062BB089522B381E090E0AC0102C0440F58
S1130280551F6A95E2F7BA01622B62BB089508957F
S1130290682370E0CB0102C0959587954A95E2F7F3
S11302A008958130A1F0813028F08230E9F0833064
S11302B0A1F527C02BB381E090E0AC0102C0440F4C
S11302C0551F6A95E2F7BA0162276BBB089528B3FC
S11302D081E090E0AC0102C0440F551F6A95E2F73B
S11302E0BA01622768BB089525B381E090E0AC01B0
S11302F002C0440F551F6A95E2F7BA01622765BB35
S1130300089522B381E090E0AC0102C0440F551F70
S11303106A95E2F7BA01622762BB0895813089F0D9
S1130320813028F08230B9F0833049F51EC029B3FA
S113033030E0C90102C0959587956A95E2F781700E
S1130340089526B330E0C90102C0959587956A9552
S1130350E2F78170089523B330E0C90102C0959596
S113036087956A95E2F78170089520B330E0C9015A
S113037002C0959587956A95E2F78170089580E0AB
S113038008958130F9F0813030F0823091F183307A
S113039009F05CC045C08AB390E0062E02C0959572
S11303A087950A94E2F780FD51C02BB381E090E079
S11303B0AC0102C0440F551F6A95E2F7BA01622BE3
S11303C06BBB089587B390E0062E02C09595879580
S11303D00A94E2F780FD3AC028B381E090E0AC01D2
S11303E002C0440F551F6A95E2F7BA01622B68BB3D
S11303F0089584B390E0062E02C0959587950A94DB
S1130400E2F780FD23C025B381E090E0AC0102C097
S1130410440F551F6A95E2F7BA01622B65BB089534
S113042081B390E0062E02C0959587950A94E2F771
S113043080FD0CC022B381E090E0AC0102C0440F07
S1130440551F6A95E2F7BA01622B62BB089581E0F9
S11304500E94A303089582E00E94A3038FEF95EA0C
S1130460AEE081509040A040E1F700C00000089544
S11304700E94460387E292E00E9498028BE292E097
S11304800E94A60283E063E00E94C10181E062E071
S11304900E94C1010E9453020E9480020E947302C2
S11304A00E948802FFCF85B78E7F85BF85B78260A3
S11304B085BF8BB78F7B8BBF8AB780648ABF8FB7AA
S11304C080688FBF089585B78D7F85BF85B78460A9
S11304D085BF8BB78F778BBF8AB780688ABF8FB78A
S11304E080688FBF089584B78F7B84BF8BB78F7D5F
S11304F08BBF8AB780628ABF8FB780688FBF089529
S11305008BB780648BBF08958BB780688BBF0895C9
S11305108BB780628BBF08958BB78F7B8BBF089599
S11305208BB78F778BBF08958BB78F7D8BBF089563
S1130530009721F090936B0080936A0008950097D0
S113054021F090936900809368000895009721F04A
S113055090936700809366000895813039F485B7DD
S1130560816085BF85B78D7F85BF0895873039F455
S113057085B7816085BF85B7826085BF0895843063
S113058039F485B78E7F85BF85B7826085BF0895AE
S11305908A3031F485B78E7F85BF85B78D7F85BF5F
S11305A008951F920F920FB60F9211242F933F9329
S11305B04F935F936F937F938F939F93AF93BF9367
S11305C0EF93FF93E0916A00F0916B000995FF911E
S11305D0EF91BF91AF919F918F917F916F915F91B7
S11305E04F913F912F910F900FBE0F901F90189530
S11305F01F920F920FB60F9211242F933F934F9394
S11306005F936F937F938F939F93AF93BF93EF9376
S1130610FF93E0916800F09169000995FF91EF91D3
S1130620BF91AF919F918F917F916F915F914F9106
S11306303F912F910F900FBE0F901F9018951F920E
S11306400F920FB60F9211242F933F934F935F9302
S11306506F937F938F939F93AF93BF93EF93FF9386
S1130660E0916600F09167000995FF91EF91BF91C9
S1130670AF919F918F917F916F915F914F913F9136
S11306802F910F900FBE0F901F90189581E067E097
S113069041E00E94490080E064E041E00E9449009A
S11306A080E065E041E00E94490080E066E041E0CE
S11306B00E9449000895823081F0833018F481301B
S11306C0E9F405C0833079F08430C1F412C081E0CC
S11306D067E041E00E94C800089580E064E041E0E2
S11306E00E94C800089580E065E041E00E94C800CF
S11306F0089580E066E041E00E94C80008958230D9
S113070081F0833018F48130E9F405C0833079F046
S11307108430C1F412C081E067E040E00E94C80068
S1130720089580E064E040E00E94C800089580E0FD
S113073065E040E00E94C800089580E066E040E083
S11307400E94C8000895823079F0833018F4813013
S1130750C9F405C0833069F08430A1F40FC081E08E
S113076067E00E945101089580E064E00E94510115
S1130770089580E065E00E945101089580E066E0FC
S10D07800E9451010895F894FFCF80
S9030000FC
