S01000006E74695F646179312E73726563FB
S11300000C942A000C9447000C9447000C9447006D
S11300100C9447000C9447000C9447000C94470040
S11300200C9447000C9447000C9447000C94470030
S11300300C9447000C9447000C9447000C94470020
S11300400C9447000C9447000C9447000C94470010
S11300500C94470011241FBECFE5D8E0DEBFCDBF0E
S113006010E0A0E6B0E0E0E6F6E002C005900D92F4
S1130070A036B107D9F710E0A0E6B0E001C01D92A8
S1130080A036B107E1F70E94FE020C942E030C94F3
S1130090000083E067E040E00E94AC0083E067E09A
S11300A00E941B0283E066E040E00E94AC0083E013
S11300B066E00E941B0283E065E040E00E94AC0021
S11300C083E065E00E941B0283E063E040E00E945D
S11300D0AC0083E063E00E941B020895CF93DF939A
S11300E000D0CDB7DEB719821A82823099F08330FE
S11300F018F4813051F505C08330A9F0843029F516
S11301001BC083E067E00E94E80191E08823F1F0DE
S113011090E01CC083E066E00E94E80191E088233F
S1130120A9F090E013C083E065E00E94E80191E04B
S1130130882361F090E00AC083E063E00E94E80154
S113014091E0882319F090E001C001C0892F0F903D
S11301500F90DF91CF910895813031F1813038F0E3
S1130160823009F43EC0833009F074C057C0413076
S113017069F42AB381E090E0AC0102C0440F551F3A
S11301806A95E2F7BA01622B6ABB08952AB381E04B
S113019090E0AC0102C0440F551F6A95E2F7BA0122
S11301A0609562236ABB0895413069F427B381E006
S11301B090E0AC0102C0440F551F6A95E2F7BA0102
S11301C0622B67BB089527B381E090E0AC0102C0C5
S11301D0440F551F6A95E2F7BA016095622367BB25
S11301E00895413069F424B381E090E0AC0102C089
S11301F0440F551F6A95E2F7BA01622B64BB089558
S113020024B381E090E0AC0102C0440F551F6A950D
S1130210E2F7BA016095622364BB0895413069F442
S113022021B381E090E0AC0102C0440F551F6A95F0
S1130230E2F7BA01622B61BB089521B381E090E03B
S1130240AC0102C0440F551F6A95E2F7BA016095EC
S1130250622361BB0895813031F1813038F08230FE
S113026009F43EC0833009F074C057C0442371F4CC
S11302702BB381E090E0AC0102C0440F551F6A9596
S1130280E2F7BA01609562236BBB08952BB381E05A
S113029090E0AC0102C0440F551F6A95E2F7BA0121
S11302A0622B6BBB0895442371F428B381E090E082
S11302B0AC0102C0440F551F6A95E2F7BA0160957C
S11302C0622368BB089528B381E090E0AC0102C0CA
S11302D0440F551F6A95E2F7BA01622B68BB089573
S11302E0442371F425B381E090E0AC0102C0440FD3
S11302F0551F6A95E2F7BA016095622365BB0895BC
S113030025B381E090E0AC0102C0440F551F6A950B
S1130310E2F7BA01622B65BB0895442371F422B35A
S113032081E090E0AC0102C0440F551F6A95E2F7EA
S1130330BA016095622362BB089522B381E090E024
S1130340AC0102C0440F551F6A95E2F7BA01622B53
S113035062BB089508958130A1F0813028F0823085
S1130360E9F08330A1F527C02BB381E090E0AC0124
S113037002C0440F551F6A95E2F7BA0162276BBBAE
S1130380089528B381E090E0AC0102C0440F551FEA
S11303906A95E2F7BA01622768BB089525B381E044
S11303A090E0AC0102C0440F551F6A95E2F7BA0110
S11303B0622765BB089522B381E090E0AC0102C0DE
S11303C0440F551F6A95E2F7BA01622762BB08958C
S11303D0813089F0813028F08230B9F0833049F5DA
S11303E01EC029B330E0C90102C0959587956A956E
S11303F0E2F78170089526B330E0C90102C09595F3
S113040087956A95E2F78170089523B330E0C901B6
S113041002C0959587956A95E2F78170089520B397
S113042030E0C90102C0959587956A95E2F781701D
S1130430089580E008958130F9F0813030F0823001
S113044091F1833009F05CC045C08AB390E0062E78
S113045002C0959587950A94E2F780FD51C02BB3AD
S113046081E090E0AC0102C0440F551F6A95E2F7A9
S1130470BA01622B6BBB089587B390E0062E02C0CD
S1130480959587950A94E2F780FD3AC028B381E0F8
S113049090E0AC0102C0440F551F6A95E2F7BA011F
S11304A0622B68BB089584B390E0062E02C0959534
S11304B087950A94E2F780FD23C025B381E090E09C
S11304C0AC0102C0440F551F6A95E2F7BA01622BD2
S11304D065BB089581B390E0062E02C0959587957B
S11304E00A94E2F780FD0CC022B381E090E0AC01F5
S11304F002C0440F551F6A95E2F7BA01622B62BB32
S1130500089581E067E041E00E94AC0080E064E08F
S113051041E00E94AC0080E065E041E00E94AC0054
S113052080E066E041E00E94AC000895823081F0F2
S1130530833018F48130E9F405C0833079F08430D5
S1130540C1F412C081E067E041E00E942B010895EC
S113055080E064E041E00E942B01089580E065E0C2
S113056041E00E942B01089580E066E041E00E9492
S11305702B010895823081F0833018F48130E9F43E
S113058005C0833079F08430C1F412C081E067E0A3
S113059040E00E942B01089580E064E040E00E9466
S11305A02B01089580E065E040E00E942B0108954E
S11305B080E066E040E00E942B010895823079F0EB
S11305C0833018F48130C9F405C0833069F0843075
S11305D0A1F40FC081E067E00E94AB01089580E0C0
S11305E064E00E94AB01089580E065E00E94AB01E5
S11305F0089580E066E00E94AB0108950E948102A4
S113060081E067E041E00E94AC0083E067E040E005
S11306100E94AC0083E067E00E941B0283E067E075
S11306200E94E801882369F481E00E9496028FEF1A
S113063099E6A8E181509040A040E1F700C0000095
S1130640EDCF81E00E94BA028FEF99E6A8E18150D4
S11306509040A040E1F700C00000E0CFF894FFCF45
S9030000FC
