S00D00007461736B322E7372656332
S11300000C942A000C9447000C9447000C9447006D
S11300100C9447000C9447000C9447000C94470040
S11300200C9447000C9447000C9447000C94470030
S11300300C9447000C9447000C9447000C94470020
S11300400C9447000C9447000C9447000C94470010
S11300500C94470011241FBECFE5D8E0DEBFCDBF0E
S113006010E0A0E6B0E0E8E0F6E002C005900D92F2
S1130070A836B107D9F710E0A8E6B0E001C01D9298
S1130080A936B107E1F70E94E9020C9402030C942B
S1130090000083E067E040E00E947E0083E066E0C9
S11300A040E00E947E0083E065E040E00E947E0024
S11300B00895813071F0813018F08230E1F412C07B
S11300C083E067E00E94BA0191E08823A9F090E000
S11300D013C083E066E00E94BA0191E0882361F0D6
S11300E090E00AC083E065E00E94BA0191E08823B1
S11300F019F090E001C090E0892F0895813031F12A
S1130100813038F0823009F43EC0833009F074C085
S113011057C0413069F42AB381E090E0AC0102C0D9
S1130120440F551F6A95E2F7BA01622B6ABB089522
S11301302AB381E090E0AC0102C0440F551F6A95D8
S1130140E2F7BA01609562236ABB0895413069F40D
S113015027B381E090E0AC0102C0440F551F6A95BB
S1130160E2F7BA01622B67BB089527B381E090E000
S1130170AC0102C0440F551F6A95E2F7BA016095BD
S1130180622367BB0895413069F424B381E090E0B1
S1130190AC0102C0440F551F6A95E2F7BA01622B05
S11301A064BB089524B381E090E0AC0102C0440F25
S11301B0551F6A95E2F7BA016095622364BB0895FE
S11301C0413069F421B381E090E0AC0102C0440FF6
S11301D0551F6A95E2F7BA01622B61BB089521B3FA
S11301E081E090E0AC0102C0440F551F6A95E2F72C
S11301F0BA016095622361BB0895813031F1813089
S113020038F0823009F43EC0833009F074C057C01E
S1130210442371F42BB381E090E0AC0102C0440F9D
S1130220551F6A95E2F7BA01609562236BBB089586
S11302302BB381E090E0AC0102C0440F551F6A95D6
S1130240E2F7BA01622B6BBB0895442371F428B31F
S113025081E090E0AC0102C0440F551F6A95E2F7BB
S1130260BA016095622368BB089528B381E090E0E9
S1130270AC0102C0440F551F6A95E2F7BA01622B24
S113028068BB0895442371F425B381E090E0AC0188
S113029002C0440F551F6A95E2F7BA0160956223C4
S11302A065BB089525B381E090E0AC0102C0440F22
S11302B0551F6A95E2F7BA01622B65BB0895442382
S11302C071F422B381E090E0AC0102C0440F551FE9
S11302D06A95E2F7BA016095622362BB089522B37E
S11302E081E090E0AC0102C0440F551F6A95E2F72B
S11302F0BA01622B62BB089508958130A1F0813068
S113030028F08230E9F08330A1F527C02BB381E0D7
S113031090E0AC0102C0440F551F6A95E2F7BA01A0
S113032062276BBB089528B381E090E0AC0102C062
S1130330440F551F6A95E2F7BA01622768BB089516
S113034025B381E090E0AC0102C0440F551F6A95CB
S1130350E2F7BA01622765BB089522B381E090E019
S1130360AC0102C0440F551F6A95E2F7BA01622737
S113037062BB0895813089F0813028F08230B9F071
S1130380833049F51EC029B330E0C90102C09595F8
S113039087956A95E2F78170089526B330E0C90124
S11303A002C0959587956A95E2F78170089523B305
S11303B030E0C90102C0959587956A95E2F781708E
S11303C0089520B330E0C90102C0959587956A95D8
S11303D0E2F78170089580E00895089581E067E070
S11303E041E00E947E0080E064E041E00E947E00E3
S11303F080E065E041E00E947E0080E066E041E04C
S11304000E947E000895813069F0813028F08230A6
S113041079F08330C1F412C081E067E041E00E94CA
S1130420FD00089580E064E041E00E94FD0008952D
S113043080E065E041E00E94FD00089580E066E010
S113044041E00E94FD000895813069F0813028F078
S1130450823079F08330C1F412C081E067E040E07B
S11304600E94FD00089580E064E040E00E94FD00E9
S1130470089580E065E040E00E94FD00089580E07A
S113048066E040E00E94FD000895813061F0813013
S113049028F0823069F08330A1F40FC081E067E076
S11304A00E947D01089580E064E00E947D0108952A
S11304B080E065E00E947D01089580E066E00E948E
S11304C07D010895CF93DF93EC0180E00E945900F1
S11304D08823D1F0809168008F5F80936800C80FF3
S11304E0D11D21978881813029F082E00E94450244
S11304F0109266008FEF92E5A7E081509040A040F3
S1130500E1F700C000003DC081E00E94590088234B
S1130510D1F0809168008F5F80936800C80FD11D6F
S113052021978881823029F082E00E94450210924E
S113053066008FEF92E5A7E081509040A040E1F77C
S113054000C000001EC082E00E9459008823C9F048
S1130550809168008F5F80936800C80FD11D219738
S11305608881833029F082E00E944502109266005F
S11305708FEF92E5A7E081509040A040E1F700C0E2
S1130580000080916800863009F580916600813012
S113059079F41092680080E00E9403028FEF99E6DC
S11305A0A8E181509040A040E1F700C000000EC0D7
S11305B081E00E9403028FEF99E6A8E18150904008
S11305C0A040E1F700C0000010926800DF91CF91D5
S11305D00895CF93DF9300D000D000D0CDB7DEB71D
S11305E00E94EE010E944900DE011196E0E6F0E06F
S11305F086E001900D928150E1F7CE0101960E94B0
S10B06006202FBCFF894FFCF66
S10B06080101020303030100D8
S9030000FC
