:100000000C942A000C9447000C9447000C94470071
:100010000C9447000C9447000C9447000C94470044
:100020000C9447000C9447000C9447000C94470034
:100030000C9447000C9447000C9447000C94470024
:100040000C94BC000C9447000C9447000C9447009F
:100050000C94470011241FBECFE5D8E0DEBFCDBF12
:1000600010E0A0E6B0E0EEE5F7E002C005900D92EA
:10007000A036B107D9F710E0A0E6B0E001C01D92AC
:10008000A436B107E1F70E9449000C94AD030C942B
:1000900000000E945E000E94EF0280E00E947B0050
:1000A00029E0853C920720F081E00E940403F5CF0F
:1000B00081E00E942803F1CF379A089516B817B847
:1000C0003E9A86B1866086B90E945C000895339A94
:1000D0008FB780688FBF089537980895369A08952E
:1000E000359A80B78F7D80BF80B7806480BF80B72E
:1000F0008F7780BF089597B1907E97B997B18F7031
:10010000982B97B90E946E0086B184FFFDCF349A78
:1001100064B175B180E090E028E833E140E050E060
:100120000E946C032FEF33E040E050E00E948B030D
:10013000822F932F089597B1907E97B997B18F70C2
:10014000982B97B964B175B180E090E028E833E16D
:1001500040E050E00E946C032FEF33E040E050E0BD
:100160000E948B03822F932F0895009721F0909384
:1001700063008093620008951F920F920FB60F9252
:1001800011242F933F934F935F936F937F938F939C
:100190009F93AF93BF93EF93FF93E0916200F09131
:1001A00063000995FF91EF91BF91AF919F918F915E
:1001B0007F916F915F914F913F912F910F900FBE63
:1001C0000F901F901895CF93DF93EC0180E00E9471
:1001D0007B009983888381E00E947B009B838A83D4
:1001E00082E00E947B009D838C8383E00E947B00E1
:1001F0009F838E8384E00E947B009987888785E0B7
:100200000E947B009B878A8786E00E947B009D87F7
:100210008C8787E00E947B009F878E87DF91CF913C
:100220000895813031F1813038F0823009F43EC0D8
:10023000833009F074C057C0413069F42AB381E0BB
:1002400090E0AC0102C0440F551F6A95E2F7BA0175
:10025000622B6ABB08952AB381E090E0AC0102C032
:10026000440F551F6A95E2F7BA01609562236ABB95
:100270000895413069F427B381E090E0AC0102C0F9
:10028000440F551F6A95E2F7BA01622B67BB0895C8
:1002900027B381E090E0AC0102C0440F551F6A957E
:1002A000E2F7BA016095622367BB0895413069F4B3
:1002B00024B381E090E0AC0102C0440F551F6A9561
:1002C000E2F7BA01622B64BB089524B381E090E0A9
:1002D000AC0102C0440F551F6A95E2F7BA01609560
:1002E000622364BB0895413069F421B381E090E05A
:1002F000AC0102C0440F551F6A95E2F7BA01622BA8
:1003000061BB089521B381E090E0AC0102C0440FCD
:10031000551F6A95E2F7BA016095622361BB0895A3
:10032000813031F1813038F0823009F43EC08330C1
:1003300009F074C057C0442371F42BB381E090E0FE
:10034000AC0102C0440F551F6A95E2F7BA016095EF
:1003500062236BBB08952BB381E090E0AC0102C037
:10036000440F551F6A95E2F7BA01622B6BBB0895E3
:10037000442371F428B381E090E0AC0102C0440F43
:10038000551F6A95E2F7BA016095622368BB08952C
:1003900028B381E090E0AC0102C0440F551F6A957C
:1003A000E2F7BA01622B68BB0895442371F425B3C8
:1003B00081E090E0AC0102C0440F551F6A95E2F75E
:1003C000BA016095622365BB089525B381E090E092
:1003D000AC0102C0440F551F6A95E2F7BA01622BC7
:1003E00065BB0895442371F422B381E090E0AC0131
:1003F00002C0440F551F6A95E2F7BA016095622367
:1004000062BB089522B381E090E0AC0102C0440FCA
:10041000551F6A95E2F7BA01622B62BB08950895F1
:10042000682370E0CB0102C0959587954A95E2F765
:1004300008958130A1F0813028F08230E9F08330D6
:10044000A1F527C02BB381E090E0AC0102C0440FBE
:10045000551F6A95E2F7BA0162276BBB089528B36E
:1004600081E090E0AC0102C0440F551F6A95E2F7AD
:10047000BA01622768BB089525B381E090E0AC0122
:1004800002C0440F551F6A95E2F7BA01622765BBA7
:10049000089522B381E090E0AC0102C0440F551FE3
:1004A0006A95E2F7BA01622762BB0895813089F04C
:1004B000813028F08230B9F0833049F51EC029B36D
:1004C00030E0C90102C0959587956A95E2F7817081
:1004D000089526B330E0C90102C0959587956A95C5
:1004E000E2F78170089523B330E0C90102C0959509
:1004F00087956A95E2F78170089520B330E0C901CD
:1005000002C0959587956A95E2F78170089580E01D
:1005100008958130F9F0813030F0823091F18330EC
:1005200009F05CC045C08AB390E0062E02C09595E4
:1005300087950A94E2F780FD51C02BB381E090E0EB
:10054000AC0102C0440F551F6A95E2F7BA01622B55
:100550006BBB089587B390E0062E02C095958795F2
:100560000A94E2F780FD3AC028B381E090E0AC0144
:1005700002C0440F551F6A95E2F7BA01622B68BBAF
:10058000089584B390E0062E02C0959587950A944D
:10059000E2F780FD23C025B381E090E0AC0102C00A
:1005A000440F551F6A95E2F7BA01622B65BB0895A7
:1005B00081B390E0062E02C0959587950A94E2F7E4
:1005C00080FD0CC022B381E090E0AC0102C0440F7A
:1005D000551F6A95E2F7BA01622B62BB089581E06C
:1005E00067E041E00E94110180E064E041E00E9488
:1005F000110180E065E041E00E94110180E066E0C9
:1006000041E00E9411010895823081F0833018F496
:100610008130E9F405C0833079F08430C1F412C030
:1006200081E067E041E00E949001089580E064E08D
:1006300041E00E949001089580E065E041E00E9461
:100640009001089580E066E041E00E9490010895E5
:10065000823081F0833018F48130E9F405C08330B2
:1006600079F08430C1F412C081E067E040E00E947C
:100670009001089580E064E040E00E9490010895B8
:1006800080E065E040E00E949001089580E066E02F
:1006900040E00E9490010895823079F0833018F490
:1006A0008130C9F405C0833069F08430A1F40FC0F3
:1006B00081E067E00E941902089580E064E00E94F2
:1006C0001902089580E065E00E941902089580E013
:1006D00066E00E9419020895629FD001739FF001A5
:1006E000829FE00DF11D649FE00DF11D929FF00DC2
:1006F000839FF00D749FF00D659FF00D9927729FF9
:10070000B00DE11DF91F639FB00DE11DF91FBD0183
:10071000CF0111240895A1E21A2EAA1BBB1BFD01D3
:100720000DC0AA1FBB1FEE1FFF1FA217B307E407D0
:10073000F50720F0A21BB30BE40BF50B661F771F28
:10074000881F991F1A9469F7609570958095909508
:0E0750009B01AC01BD01CF010895F894FFCFCD
:00000001FF
