S01000006C63645F6D61696E2E73726563DD
S11300000C942A000C9447000C9447000C9447006D
S11300100C9447000C9447000C9447000C94470040
S11300200C9447000C9447000C9447000C94470030
S11300300C9447000C9447000C9447000C94470020
S11300400C9447000C9447000C9447000C94470010
S11300500C94470011241FBECFE5D8E0DEBFCDBF0E
S113006010E0A0E6B0E0E4E4F5E002C005900D92F3
S1130070A036B107D9F710E0A0E6B0E001C01D92A8
S1130080A036B107E1F70E949F020C94A0020C94E1
S11300900000813031F1813038F0823009F43EC003
S11300A0833009F074C057C0413069F42AB381E049
S11300B090E0AC0102C0440F551F6A95E2F7BA0103
S11300C0622B6ABB08952AB381E090E0AC0102C0C0
S11300D0440F551F6A95E2F7BA01609562236ABB23
S11300E00895413069F427B381E090E0AC0102C087
S11300F0440F551F6A95E2F7BA01622B67BB089556
S113010027B381E090E0AC0102C0440F551F6A950B
S1130110E2F7BA016095622367BB0895413069F440
S113012024B381E090E0AC0102C0440F551F6A95EE
S1130130E2F7BA01622B64BB089524B381E090E036
S1130140AC0102C0440F551F6A95E2F7BA016095ED
S1130150622364BB0895413069F421B381E090E0E7
S1130160AC0102C0440F551F6A95E2F7BA01622B35
S113017061BB089521B381E090E0AC0102C0440F5B
S1130180551F6A95E2F7BA016095622361BB089531
S1130190813031F1813038F0823009F43EC083304F
S11301A009F074C057C0442371F42BB381E090E08C
S11301B0AC0102C0440F551F6A95E2F7BA0160957D
S11301C062236BBB08952BB381E090E0AC0102C0C5
S11301D0440F551F6A95E2F7BA01622B6BBB089571
S11301E0442371F428B381E090E0AC0102C0440FD1
S11301F0551F6A95E2F7BA016095622368BB0895BA
S113020028B381E090E0AC0102C0440F551F6A9509
S1130210E2F7BA01622B68BB0895442371F425B355
S113022081E090E0AC0102C0440F551F6A95E2F7EB
S1130230BA016095622365BB089525B381E090E01F
S1130240AC0102C0440F551F6A95E2F7BA01622B54
S113025065BB0895442371F422B381E090E0AC01BE
S113026002C0440F551F6A95E2F7BA0160956223F4
S113027062BB089522B381E090E0AC0102C0440F58
S1130280551F6A95E2F7BA01622B62BB089508957F
S1130290682370E0CB0102C0959587954A95E2F7F3
S11302A008958130A1F0813028F08230E9F0833064
S11302B0A1F527C02BB381E090E0AC0102C0440F4C
S11302C0551F6A95E2F7BA0162276BBB089528B3FC
S11302D081E090E0AC0102C0440F551F6A95E2F73B
S11302E0BA01622768BB089525B381E090E0AC01B0
S11302F002C0440F551F6A95E2F7BA01622765BB35
S1130300089522B381E090E0AC0102C0440F551F70
S11303106A95E2F7BA01622762BB0895813089F0D9
S1130320813028F08230B9F0833049F51EC029B3FA
S113033030E0C90102C0959587956A95E2F781700E
S1130340089526B330E0C90102C0959587956A9552
S1130350E2F78170089523B330E0C90102C0959596
S113036087956A95E2F78170089520B330E0C9015A
S113037002C0959587956A95E2F78170089580E0AB
S113038008958130F9F0813030F0823091F183307A
S113039009F05CC045C08AB390E0062E02C0959572
S11303A087950A94E2F780FD51C02BB381E090E079
S11303B0AC0102C0440F551F6A95E2F7BA01622BE3
S11303C06BBB089587B390E0062E02C09595879580
S11303D00A94E2F780FD3AC028B381E090E0AC01D2
S11303E002C0440F551F6A95E2F7BA01622B68BB3D
S11303F0089584B390E0062E02C0959587950A94DB
S1130400E2F780FD23C025B381E090E0AC0102C097
S1130410440F551F6A95E2F7BA01622B65BB089534
S113042081B390E0062E02C0959587950A94E2F771
S113043080FD0CC022B381E090E0AC0102C0440F07
S1130440551F6A95E2F7BA01622B62BB089580E0FA
S113045061E041E00E94C8008FE39FE10197F1F75A
S113046000C0000080E061E040E00E94C800089500
S1130470CF93C82F80E060E041E00E94C8006C2F59
S113048062956F7081E040EF24E00E9447010E9472
S1130490270281E06C2F40EF24E00E9447010E9474
S11304A02702CF910895CF93C82F80E060E040E009
S11304B00E94C8006C2F62956F7081E040EF24E0C9
S11304C00E9447010E94270281E06C2F40EF24E044
S11304D00E9447010E942702CF91089581E064E0C1
S11304E041E00E94490081E065E041E00E9449004A
S11304F081E066E041E00E94490081E067E041E07C
S11305000E94490080E060E041E00E94490080E0F0
S113051061E041E00E9449008FEF96E7A1E081503D
S11305209040A040E1F700C0000088E20E9453021E
S11305308EE00E94530281E00E9453020895FFCF8F
S1070540F894FFCF59
S9030000FC
